:1000000010C0CAC0DEC020C01FC01EC01DC01CC0A2
:100010001BC01AC019C018C017C016C015C014C024
:1000200013C011241FBECFE5D2E0DEBFCDBF10E06C
:10003000A0E6B0E0ECECF2E002C005900D92A83B27
:10004000B107D9F7D3D040C1DBCF80EC87BB85BFE8
:100050008BB7806C8BBF7894E0916800F091690059
:100060001082E0916A00F0916B001082E0916C00C8
:10007000F0916D008FEF8083E0916600F091670052
:100080001082E0916400F091650010820895282F9D
:1000900033E048E853E1E0916C00F0916D0030836B
:1000A0003150A0916A00B0916B00822F6AE000D1BC
:1000B000E92FF0E0ED57FF4F80818C93CA01019743
:1000C000F1F7822FF5D0282F882329F7E0916A00D5
:1000D000F0916B0010820895282F30E2682F6A5F3C
:1000E00044EC59E03695E0916800F0916900308366
:1000F000A0916C00B0916D00E22FF0E0EC56FF4F44
:10010000808180958C932F5FCA010197F1F7E09170
:100110006800F09169001082261721F7E0916800CD
:10012000F091690010820895E0917000F0917100E3
:10013000208130E0209530952F703070E091720072
:10014000F09173008081482F50E040955095429582
:100150005295507F5427407F54275070E09174008F
:10016000F0917500808190E0809590958F709070EF
:10017000982F8827482B592B422B532BE0E002C0A5
:100180005695479540FD03C0EF5FEC30C9F7F0E0AE
:10019000EA58FF4F808108951F920F920FB60F9279
:1001A00011248F939F938091B6009091B700890F8F
:1001B0008093B6009F918F910F900FBE0F901F906C
:1001C00018951F920F920FB60F9211248F939F9341
:1001D0008091B6009091B700891B8093B6009F91E3
:1001E0008F910F900FBE0F901F901895BF92CF92D6
:1001F000DF92EF92FF920F931F93CF93DF9325DF50
:10020000CC24CA9411E0ECE0DE2EBB24BA9400E0CA
:10021000C4ECD9E026C08091B60039DFCE01019749
:10022000F1F7F02EE0916200F09163008091B70049
:100230008083E0916600F09167001083E0916E008A
:10024000F0916F00812F80958083CE010197F1F7A7
:10025000CC2021F1110F1038F9F01130E9F0DE2C2B
:100260000F2D62DFE82E8AE0E816F9F08BE0E81641
:10027000B9F089E08E1510F0E092B700BB2059F676
:10028000F02EF394802F28DFCE010197F1F78DE156
:10029000F81641F6FF24C6CFC094E1CF1695DBCF08
:1002A0008BE0D81659F3B094E9CF1092B600E6CFA0
:1002B000991B79E004C0991F961708F0961B881FB8
:0C02C0007A95C9F780950895F894FFCF57
:1002CC0000A001A004A006A000800180028000F024
:1002DC000690059003900104070A02050800030626
:1002EC00090B0C3F065B4F666D7D077F6F777C3982
:1002FC005E79714000000000001F2444447F0078A8
:10030C000505057E0040407F4040003E41414122B2
:08031C000000000000000201D6
:00000001FF
