:1000000010C02AC029C028C03BC026C025C024C0BB
:1000100023C022C021C020C01FC01EC01DC01CC0E4
:100020001BC011241FBECFE5D2E0DEBFCDBF10E064
:10003000A0E6B0E0E4E2F2E002C005900D92AC3838
:10004000B107D9F710E0ACE8B0E001C01D92AE38BE
:10005000B107E1F771D0E4C0D3CF00000197E9F711
:100060000895F89490938D0080938C007894F89480
:1000700080918C0090918D007894892BC1F7089520
:100080001F920F920FB60F9211248F939F9388B3F4
:10009000805888BB80918C0090918D00892B49F00D
:1000A00080918C0090918D00019790938D008093AA
:1000B0008C008091890090918A00892B69F0809151
:1000C000890090918A00019790938A00809389001B
:1000D00088B390E4892788BB9F918F910F900FBEC2
:1000E0000F901F90189580EC87BB85BF82E790E04A
:1000F0009BBD8ABD8BE08EBD89B7806489BF789433
:10010000E0916800F09169001082E0916A00F0913E
:100110006B001082E0916C00F0916D008FEF808396
:10012000E0916600F09167001082E0916400F09128
:10013000650083E080830895FF920F931F93D3DFC0
:1001400011E00FEFFF24FA94E0916E00F0916F0040
:10015000208130E0209530952F703070E091700054
:10016000F09171008081482F50E040955095429564
:100170005295507F5427407F54275070E091720071
:10018000F0917300808190E0809590958F709070D1
:10019000982F8827482B592B422B532B80E002C0E5
:1001A0005695479540FD03C08F5F8C30C9F7E091AD
:1001B0006200F09163008083A0916000B0916100C3
:1001C000E82FF0E0E458FF4F80818C9384E690E0C4
:1001D00048DFE0917400F09175001083E0917600A3
:1001E000F0917700F082E0916600F0916700108353
:1001F000E0917A00F0917B00812F80958083E091DF
:100200007800F0917900F082002341F0110F10384E
:1002100019F0113009F098CF009596CF1695F7CFC9
:04022000F894FFCF80
:1002240000A001A004A006A0008001800280069026
:100234000590039002800080018001F00104070A08
:0C024400020508000306090B0CF4010081
:00000001FF
